{
  "contractName": "DNN",
  "abi": [
    {
      "anonymous": false,
      "inputs": [
        {
          "indexed": false,
          "internalType": "uint256",
          "name": "fileId",
          "type": "uint256"
        },
        {
          "indexed": false,
          "internalType": "uint256",
          "name": "newsId",
          "type": "uint256"
        },
        {
          "indexed": false,
          "internalType": "string",
          "name": "fileHash",
          "type": "string"
        },
        {
          "indexed": false,
          "internalType": "uint256",
          "name": "fileSize",
          "type": "uint256"
        },
        {
          "indexed": false,
          "internalType": "string",
          "name": "fileType",
          "type": "string"
        },
        {
          "indexed": false,
          "internalType": "string",
          "name": "fileName",
          "type": "string"
        },
        {
          "indexed": false,
          "internalType": "string",
          "name": "fileDescription",
          "type": "string"
        },
        {
          "indexed": false,
          "internalType": "uint256",
          "name": "uploadTime",
          "type": "uint256"
        },
        {
          "indexed": false,
          "internalType": "address",
          "name": "uploader",
          "type": "address"
        }
      ],
      "name": "FileUploaded",
      "type": "event"
    },
    {
      "anonymous": false,
      "inputs": [
        {
          "indexed": false,
          "internalType": "uint256",
          "name": "newsId",
          "type": "uint256"
        },
        {
          "indexed": false,
          "internalType": "string",
          "name": "NewsTopic",
          "type": "string"
        },
        {
          "indexed": false,
          "internalType": "string",
          "name": "NewsDescription",
          "type": "string"
        },
        {
          "indexed": false,
          "internalType": "uint256",
          "name": "uploadTime",
          "type": "uint256"
        },
        {
          "indexed": false,
          "internalType": "address",
          "name": "uploader",
          "type": "address"
        }
      ],
      "name": "NewsUploaded",
      "type": "event"
    },
    {
      "anonymous": false,
      "inputs": [
        {
          "indexed": false,
          "internalType": "address",
          "name": "userId",
          "type": "address"
        }
      ],
      "name": "UserCreated",
      "type": "event"
    },
    {
      "inputs": [
        {
          "internalType": "uint256",
          "name": "",
          "type": "uint256"
        }
      ],
      "name": "news",
      "outputs": [
        {
          "internalType": "uint256",
          "name": "newsId",
          "type": "uint256"
        },
        {
          "internalType": "string",
          "name": "NewsTopic",
          "type": "string"
        },
        {
          "internalType": "string",
          "name": "NewsDescription",
          "type": "string"
        },
        {
          "internalType": "uint256",
          "name": "uploadTime",
          "type": "uint256"
        },
        {
          "internalType": "uint256",
          "name": "filesCount",
          "type": "uint256"
        },
        {
          "internalType": "address",
          "name": "uploader",
          "type": "address"
        }
      ],
      "stateMutability": "view",
      "type": "function"
    },
    {
      "inputs": [],
      "name": "newsCount",
      "outputs": [
        {
          "internalType": "uint256",
          "name": "",
          "type": "uint256"
        }
      ],
      "stateMutability": "view",
      "type": "function"
    },
    {
      "inputs": [
        {
          "internalType": "address",
          "name": "",
          "type": "address"
        }
      ],
      "name": "users",
      "outputs": [
        {
          "internalType": "address",
          "name": "userId",
          "type": "address"
        }
      ],
      "stateMutability": "view",
      "type": "function"
    },
    {
      "inputs": [
        {
          "internalType": "uint256",
          "name": "_newsId",
          "type": "uint256"
        },
        {
          "internalType": "string",
          "name": "_fileHash",
          "type": "string"
        },
        {
          "internalType": "uint256",
          "name": "_fileSize",
          "type": "uint256"
        },
        {
          "internalType": "string",
          "name": "_fileType",
          "type": "string"
        },
        {
          "internalType": "string",
          "name": "_fileName",
          "type": "string"
        },
        {
          "internalType": "string",
          "name": "_fileDescription",
          "type": "string"
        }
      ],
      "name": "uploadMediaToNewsArticle",
      "outputs": [],
      "stateMutability": "nonpayable",
      "type": "function"
    },
    {
      "inputs": [
        {
          "internalType": "string",
          "name": "_NewsTopic",
          "type": "string"
        },
        {
          "internalType": "string",
          "name": "_NewsDescription",
          "type": "string"
        }
      ],
      "name": "uploadNews",
      "outputs": [
        {
          "internalType": "uint256",
          "name": "",
          "type": "uint256"
        }
      ],
      "stateMutability": "nonpayable",
      "type": "function"
    },
    {
      "inputs": [
        {
          "internalType": "address",
          "name": "userId",
          "type": "address"
        }
      ],
      "name": "getPlatformUserArticles",
      "outputs": [
        {
          "components": [
            {
              "internalType": "uint256",
              "name": "newsId",
              "type": "uint256"
            },
            {
              "internalType": "string",
              "name": "NewsTopic",
              "type": "string"
            },
            {
              "internalType": "string",
              "name": "NewsDescription",
              "type": "string"
            },
            {
              "internalType": "uint256",
              "name": "uploadTime",
              "type": "uint256"
            },
            {
              "internalType": "uint256",
              "name": "filesCount",
              "type": "uint256"
            },
            {
              "internalType": "address",
              "name": "uploader",
              "type": "address"
            },
            {
              "components": [
                {
                  "internalType": "uint256",
                  "name": "fileId",
                  "type": "uint256"
                },
                {
                  "internalType": "uint256",
                  "name": "newsId",
                  "type": "uint256"
                },
                {
                  "internalType": "string",
                  "name": "fileHash",
                  "type": "string"
                },
                {
                  "internalType": "uint256",
                  "name": "fileSize",
                  "type": "uint256"
                },
                {
                  "internalType": "string",
                  "name": "fileType",
                  "type": "string"
                },
                {
                  "internalType": "string",
                  "name": "fileName",
                  "type": "string"
                },
                {
                  "internalType": "string",
                  "name": "fileDescription",
                  "type": "string"
                },
                {
                  "internalType": "uint256",
                  "name": "uploadTime",
                  "type": "uint256"
                },
                {
                  "internalType": "address",
                  "name": "uploader",
                  "type": "address"
                }
              ],
              "internalType": "struct DNN.File[]",
              "name": "files",
              "type": "tuple[]"
            }
          ],
          "internalType": "struct DNN.News[]",
          "name": "",
          "type": "tuple[]"
        }
      ],
      "stateMutability": "view",
      "type": "function"
    },
    {
      "inputs": [
        {
          "internalType": "uint256",
          "name": "newsid",
          "type": "uint256"
        }
      ],
      "name": "getArticleMediaList",
      "outputs": [
        {
          "components": [
            {
              "internalType": "uint256",
              "name": "fileId",
              "type": "uint256"
            },
            {
              "internalType": "uint256",
              "name": "newsId",
              "type": "uint256"
            },
            {
              "internalType": "string",
              "name": "fileHash",
              "type": "string"
            },
            {
              "internalType": "uint256",
              "name": "fileSize",
              "type": "uint256"
            },
            {
              "internalType": "string",
              "name": "fileType",
              "type": "string"
            },
            {
              "internalType": "string",
              "name": "fileName",
              "type": "string"
            },
            {
              "internalType": "string",
              "name": "fileDescription",
              "type": "string"
            },
            {
              "internalType": "uint256",
              "name": "uploadTime",
              "type": "uint256"
            },
            {
              "internalType": "address",
              "name": "uploader",
              "type": "address"
            }
          ],
          "internalType": "struct DNN.File[]",
          "name": "",
          "type": "tuple[]"
        }
      ],
      "stateMutability": "view",
      "type": "function"
    }
  ],
  "bytecode": "0x60806040526000805534801561001457600080fd5b50611f7f806100246000396000f3fe608060405234801561001057600080fd5b506004361061007d5760003560e01c80638873d75a1161005b5780638873d75a146101175780639981d6d314610147578063a87430ba14610165578063cffb67f9146101955761007d565b8063224500e6146100825780632fb7d873146100b25780635afa34db146100e2575b600080fd5b61009c6004803603810190610097919061148f565b6101b1565b6040516100a99190611a54565b60405180910390f35b6100cc60048036038101906100c79190611534565b610815565b6040516100d99190611a32565b60405180910390f35b6100fc60048036038101906100f79190611534565b610b51565b60405161010e96959493929190611af2565b60405180910390f35b610131600480360381019061012c91906114bc565b610cbd565b60405161013e9190611a76565b60405180910390f35b61014f610fe6565b60405161015c9190611a76565b60405180910390f35b61017f600480360381019061017a919061148f565b610fec565b60405161018c9190611a17565b60405180910390f35b6101af60048036038101906101aa9190611561565b61102a565b005b60606000600260008473ffffffffffffffffffffffffffffffffffffffff1673ffffffffffffffffffffffffffffffffffffffff1681526020019081526020016000206001018054905067ffffffffffffffff81111561021457610213611ec7565b5b60405190808252806020026020018201604052801561024d57816020015b61023a6112ff565b8152602001906001900390816102325790505b50905060005b600260008573ffffffffffffffffffffffffffffffffffffffff1673ffffffffffffffffffffffffffffffffffffffff1681526020019081526020016000206001018054905081101561080b5760016000600260008773ffffffffffffffffffffffffffffffffffffffff1673ffffffffffffffffffffffffffffffffffffffff16815260200190815260200160002060010183815481106102f8576102f7611e98565b5b906000526020600020015481526020019081526020016000206040518060e00160405290816000820154815260200160018201805461033690611d8e565b80601f016020809104026020016040519081016040528092919081815260200182805461036290611d8e565b80156103af5780601f10610384576101008083540402835291602001916103af565b820191906000526020600020905b81548152906001019060200180831161039257829003601f168201915b505050505081526020016002820180546103c890611d8e565b80601f01602080910402602001604051908101604052809291908181526020018280546103f490611d8e565b80156104415780601f1061041657610100808354040283529160200191610441565b820191906000526020600020905b81548152906001019060200180831161042457829003601f168201915b5050505050815260200160038201548152602001600482015481526020016005820160009054906101000a900473ffffffffffffffffffffffffffffffffffffffff1673ffffffffffffffffffffffffffffffffffffffff1673ffffffffffffffffffffffffffffffffffffffff16815260200160068201805480602002602001604051908101604052809291908181526020016000905b828210156107d2578382906000526020600020906009020160405180610120016040529081600082015481526020016001820154815260200160028201805461052190611d8e565b80601f016020809104026020016040519081016040528092919081815260200182805461054d90611d8e565b801561059a5780601f1061056f5761010080835404028352916020019161059a565b820191906000526020600020905b81548152906001019060200180831161057d57829003601f168201915b50505050508152602001600382015481526020016004820180546105bd90611d8e565b80601f01602080910402602001604051908101604052809291908181526020018280546105e990611d8e565b80156106365780601f1061060b57610100808354040283529160200191610636565b820191906000526020600020905b81548152906001019060200180831161061957829003601f168201915b5050505050815260200160058201805461064f90611d8e565b80601f016020809104026020016040519081016040528092919081815260200182805461067b90611d8e565b80156106c85780601f1061069d576101008083540402835291602001916106c8565b820191906000526020600020905b8154815290600101906020018083116106ab57829003601f168201915b505050505081526020016006820180546106e190611d8e565b80601f016020809104026020016040519081016040528092919081815260200182805461070d90611d8e565b801561075a5780601f1061072f5761010080835404028352916020019161075a565b820191906000526020600020905b81548152906001019060200180831161073d57829003601f168201915b50505050508152602001600782015481526020016008820160009054906101000a900473ffffffffffffffffffffffffffffffffffffffff1673ffffffffffffffffffffffffffffffffffffffff1673ffffffffffffffffffffffffffffffffffffffff1681525050815260200190600101906104d9565b50505050815250508282815181106107ed576107ec611e98565b5b6020026020010181905250808061080390611df1565b915050610253565b5080915050919050565b606060016000838152602001908152602001600020600601805480602002602001604051908101604052809291908181526020016000905b82821015610b46578382906000526020600020906009020160405180610120016040529081600082015481526020016001820154815260200160028201805461089590611d8e565b80601f01602080910402602001604051908101604052809291908181526020018280546108c190611d8e565b801561090e5780601f106108e35761010080835404028352916020019161090e565b820191906000526020600020905b8154815290600101906020018083116108f157829003601f168201915b505050505081526020016003820154815260200160048201805461093190611d8e565b80601f016020809104026020016040519081016040528092919081815260200182805461095d90611d8e565b80156109aa5780601f1061097f576101008083540402835291602001916109aa565b820191906000526020600020905b81548152906001019060200180831161098d57829003601f168201915b505050505081526020016005820180546109c390611d8e565b80601f01602080910402602001604051908101604052809291908181526020018280546109ef90611d8e565b8015610a3c5780601f10610a1157610100808354040283529160200191610a3c565b820191906000526020600020905b815481529060010190602001808311610a1f57829003601f168201915b50505050508152602001600682018054610a5590611d8e565b80601f0160208091040260200160405190810160405280929190818152602001828054610a8190611d8e565b8015610ace5780601f10610aa357610100808354040283529160200191610ace565b820191906000526020600020905b815481529060010190602001808311610ab157829003601f168201915b50505050508152602001600782015481526020016008820160009054906101000a900473ffffffffffffffffffffffffffffffffffffffff1673ffffffffffffffffffffffffffffffffffffffff1673ffffffffffffffffffffffffffffffffffffffff16815250508152602001906001019061084d565b505050509050919050565b6001602052806000526040600020600091509050806000015490806001018054610b7a90611d8e565b80601f0160208091040260200160405190810160405280929190818152602001828054610ba690611d8e565b8015610bf35780601f10610bc857610100808354040283529160200191610bf3565b820191906000526020600020905b815481529060010190602001808311610bd657829003601f168201915b505050505090806002018054610c0890611d8e565b80601f0160208091040260200160405190810160405280929190818152602001828054610c3490611d8e565b8015610c815780601f10610c5657610100808354040283529160200191610c81565b820191906000526020600020905b815481529060010190602001808311610c6457829003601f168201915b5050505050908060030154908060040154908060050160009054906101000a900473ffffffffffffffffffffffffffffffffffffffff16905086565b600080835111610ccc57600080fd5b6000825111610cda57600080fd5b600073ffffffffffffffffffffffffffffffffffffffff163373ffffffffffffffffffffffffffffffffffffffff161415610d1457600080fd5b600080815480929190610d2690611df1565b9190505550600060016000805481526020019081526020016000209050600054816000018190555083816001019080519060200190610d66929190611352565b5082816002019080519060200190610d7f929190611352565b50428160030181905550338160050160006101000a81548173ffffffffffffffffffffffffffffffffffffffff021916908373ffffffffffffffffffffffffffffffffffffffff16021790555060008160040181905550600073ffffffffffffffffffffffffffffffffffffffff16600260003373ffffffffffffffffffffffffffffffffffffffff1673ffffffffffffffffffffffffffffffffffffffff16815260200190815260200160002060000160009054906101000a900473ffffffffffffffffffffffffffffffffffffffff1673ffffffffffffffffffffffffffffffffffffffff161415610f2c576000600260003373ffffffffffffffffffffffffffffffffffffffff1673ffffffffffffffffffffffffffffffffffffffff1681526020019081526020016000209050338160000160006101000a81548173ffffffffffffffffffffffffffffffffffffffff021916908373ffffffffffffffffffffffffffffffffffffffff1602179055507f0b0376a109cbb578b709f85f6a7befcdac3ac1ab251c99ede87f30c9572ac4d333604051610f229190611a17565b60405180910390a1505b600260003373ffffffffffffffffffffffffffffffffffffffff1673ffffffffffffffffffffffffffffffffffffffff168152602001908152602001600020600101816000015490806001815401808255809150506001900390600052602060002001600090919091909150557f16786be35fc28e175b1476a6756cdfe3119619186998ddb344a32c49e0b0267a60005485854233604051610fd2959493929190611a91565b60405180910390a160005491505092915050565b60005481565b60026020528060005260406000206000915090508060000160009054906101000a900473ffffffffffffffffffffffffffffffffffffffff16905081565b600085511161103857600080fd5b600083511161104657600080fd5b600082511161105457600080fd5b600081511161106257600080fd5b6000841161106f57600080fd5b6001600087815260200190815260200160002060050160009054906101000a900473ffffffffffffffffffffffffffffffffffffffff1673ffffffffffffffffffffffffffffffffffffffff163373ffffffffffffffffffffffffffffffffffffffff16146110dd57600080fd5b60016000878152602001908152602001600020600401600081548092919061110490611df1565b919050555060016000878152602001908152602001600020600601604051806101200160405280600160008a81526020019081526020016000206004015481526020018881526020018781526020018681526020018581526020018481526020018381526020014281526020013373ffffffffffffffffffffffffffffffffffffffff168152509080600181540180825580915050600190039060005260206000209060090201600090919091909150600082015181600001556020820151816001015560408201518160020190805190602001906111e4929190611352565b5060608201518160030155608082015181600401908051906020019061120b929190611352565b5060a0820151816005019080519060200190611228929190611352565b5060c0820151816006019080519060200190611245929190611352565b5060e082015181600701556101008201518160080160006101000a81548173ffffffffffffffffffffffffffffffffffffffff021916908373ffffffffffffffffffffffffffffffffffffffff16021790555050507f80a8de0ebcd69f918f020fd8a46283c213972e5a92dd39db875a9caf4a1af27b600160008881526020019081526020016000206004015487878787878742336040516112ef99989796959493929190611b61565b60405180910390a1505050505050565b6040518060e001604052806000815260200160608152602001606081526020016000815260200160008152602001600073ffffffffffffffffffffffffffffffffffffffff168152602001606081525090565b82805461135e90611d8e565b90600052602060002090601f01602090048101928261138057600085556113c7565b82601f1061139957805160ff19168380011785556113c7565b828001600101855582156113c7579182015b828111156113c65782518255916020019190600101906113ab565b5b5090506113d491906113d8565b5090565b5b808211156113f15760008160009055506001016113d9565b5090565b600061140861140384611c2f565b611c0a565b90508281526020810184848401111561142457611423611efb565b5b61142f848285611d4c565b509392505050565b60008135905061144681611f1b565b92915050565b600082601f83011261146157611460611ef6565b5b81356114718482602086016113f5565b91505092915050565b60008135905061148981611f32565b92915050565b6000602082840312156114a5576114a4611f05565b5b60006114b384828501611437565b91505092915050565b600080604083850312156114d3576114d2611f05565b5b600083013567ffffffffffffffff8111156114f1576114f0611f00565b5b6114fd8582860161144c565b925050602083013567ffffffffffffffff81111561151e5761151d611f00565b5b61152a8582860161144c565b9150509250929050565b60006020828403121561154a57611549611f05565b5b60006115588482850161147a565b91505092915050565b60008060008060008060c0878903121561157e5761157d611f05565b5b600061158c89828a0161147a565b965050602087013567ffffffffffffffff8111156115ad576115ac611f00565b5b6115b989828a0161144c565b95505060406115ca89828a0161147a565b945050606087013567ffffffffffffffff8111156115eb576115ea611f00565b5b6115f789828a0161144c565b935050608087013567ffffffffffffffff81111561161857611617611f00565b5b61162489828a0161144c565b92505060a087013567ffffffffffffffff81111561164557611644611f00565b5b61165189828a0161144c565b9150509295509295509295565b600061166a8383611875565b905092915050565b600061167e838361194f565b905092915050565b61168f81611d10565b82525050565b61169e81611d10565b82525050565b60006116af82611c80565b6116b98185611cbb565b9350836020820285016116cb85611c60565b8060005b8581101561170757848403895281516116e8858261165e565b94506116f383611ca1565b925060208a019950506001810190506116cf565b50829750879550505050505092915050565b600061172482611c80565b61172e8185611ccc565b93508360208202850161174085611c60565b8060005b8581101561177c578484038952815161175d858261165e565b945061176883611ca1565b925060208a01995050600181019050611744565b50829750879550505050505092915050565b600061179982611c8b565b6117a38185611cdd565b9350836020820285016117b585611c70565b8060005b858110156117f157848403895281516117d28582611672565b94506117dd83611cae565b925060208a019950506001810190506117b9565b50829750879550505050505092915050565b600061180e82611c96565b6118188185611cee565b9350611828818560208601611d5b565b61183181611f0a565b840191505092915050565b600061184782611c96565b6118518185611cff565b9350611861818560208601611d5b565b61186a81611f0a565b840191505092915050565b60006101208301600083015161188e60008601826119f9565b5060208301516118a160208601826119f9565b50604083015184820360408601526118b98282611803565b91505060608301516118ce60608601826119f9565b50608083015184820360808601526118e68282611803565b91505060a083015184820360a08601526119008282611803565b91505060c083015184820360c086015261191a8282611803565b91505060e083015161192f60e08601826119f9565b50610100830151611944610100860182611686565b508091505092915050565b600060e08301600083015161196760008601826119f9565b506020830151848203602086015261197f8282611803565b915050604083015184820360408601526119998282611803565b91505060608301516119ae60608601826119f9565b5060808301516119c160808601826119f9565b5060a08301516119d460a0860182611686565b5060c083015184820360c08601526119ec82826116a4565b9150508091505092915050565b611a0281611d42565b82525050565b611a1181611d42565b82525050565b6000602082019050611a2c6000830184611695565b92915050565b60006020820190508181036000830152611a4c8184611719565b905092915050565b60006020820190508181036000830152611a6e818461178e565b905092915050565b6000602082019050611a8b6000830184611a08565b92915050565b600060a082019050611aa66000830188611a08565b8181036020830152611ab8818761183c565b90508181036040830152611acc818661183c565b9050611adb6060830185611a08565b611ae86080830184611695565b9695505050505050565b600060c082019050611b076000830189611a08565b8181036020830152611b19818861183c565b90508181036040830152611b2d818761183c565b9050611b3c6060830186611a08565b611b496080830185611a08565b611b5660a0830184611695565b979650505050505050565b600061012082019050611b77600083018c611a08565b611b84602083018b611a08565b8181036040830152611b96818a61183c565b9050611ba56060830189611a08565b8181036080830152611bb7818861183c565b905081810360a0830152611bcb818761183c565b905081810360c0830152611bdf818661183c565b9050611bee60e0830185611a08565b611bfc610100830184611695565b9a9950505050505050505050565b6000611c14611c25565b9050611c208282611dc0565b919050565b6000604051905090565b600067ffffffffffffffff821115611c4a57611c49611ec7565b5b611c5382611f0a565b9050602081019050919050565b6000819050602082019050919050565b6000819050602082019050919050565b600081519050919050565b600081519050919050565b600081519050919050565b6000602082019050919050565b6000602082019050919050565b600082825260208201905092915050565b600082825260208201905092915050565b600082825260208201905092915050565b600082825260208201905092915050565b600082825260208201905092915050565b6000611d1b82611d22565b9050919050565b600073ffffffffffffffffffffffffffffffffffffffff82169050919050565b6000819050919050565b82818337600083830152505050565b60005b83811015611d79578082015181840152602081019050611d5e565b83811115611d88576000848401525b50505050565b60006002820490506001821680611da657607f821691505b60208210811415611dba57611db9611e69565b5b50919050565b611dc982611f0a565b810181811067ffffffffffffffff82111715611de857611de7611ec7565b5b80604052505050565b6000611dfc82611d42565b91507fffffffffffffffffffffffffffffffffffffffffffffffffffffffffffffffff821415611e2f57611e2e611e3a565b5b600182019050919050565b7f4e487b7100000000000000000000000000000000000000000000000000000000600052601160045260246000fd5b7f4e487b7100000000000000000000000000000000000000000000000000000000600052602260045260246000fd5b7f4e487b7100000000000000000000000000000000000000000000000000000000600052603260045260246000fd5b7f4e487b7100000000000000000000000000000000000000000000000000000000600052604160045260246000fd5b600080fd5b600080fd5b600080fd5b600080fd5b6000601f19601f8301169050919050565b611f2481611d10565b8114611f2f57600080fd5b50565b611f3b81611d42565b8114611f4657600080fd5b5056fea2646970667358221220c0e2b60d93f6b97f24675bdcd6260534dd97580bcc3765ed2ddd75137b547ae264736f6c63430008060033",
  "immutableReferences": {},
  "source": "pragma solidity ^0.8.0;\r\n\r\ncontract DNN {\r\n\r\n  uint public newsCount = 0;\r\n  mapping(uint => News) public news;\r\n  mapping(address => PlatformUser) public users;\r\n\r\n  struct PlatformUser{\r\n    address userId;\r\n    uint[] newsIds;\r\n  }\r\n\r\n  struct File{\r\n    uint fileId;\r\n    uint newsId;\r\n    string fileHash;\r\n    uint fileSize;\r\n    string fileType;\r\n    string fileName;\r\n    string fileDescription;\r\n    uint uploadTime;\r\n    address uploader;\r\n  }\r\n  \r\n  struct News{\r\n    uint newsId;\r\n    string NewsTopic;\r\n    string NewsDescription;\r\n    uint uploadTime;\r\n    uint filesCount;\r\n    address uploader;\r\n    File[] files;\r\n  }\r\n\r\n  // Event\r\n  event UserCreated(\r\n    address userId\r\n  );\r\n\r\n  event FileUploaded(\r\n    uint fileId,\r\n    uint newsId,\r\n    string fileHash,\r\n    uint fileSize,\r\n    string fileType,\r\n    string fileName,\r\n    string fileDescription,\r\n    uint uploadTime,\r\n    address uploader\r\n  );\r\n\r\n  //News event\r\n  event NewsUploaded(\r\n    uint newsId,\r\n    string NewsTopic,\r\n    string NewsDescription,\r\n    uint uploadTime,\r\n    address uploader\r\n  );\r\n\r\n  // Upload File function\r\n  function uploadMediaToNewsArticle(uint _newsId, string memory _fileHash, uint _fileSize, string memory _fileType,string memory _fileName,string memory _fileDescription) public\r\n  {\r\n\r\n    require(bytes(_fileHash).length>0);\r\n    require(bytes(_fileType).length>0);\r\n    require(bytes(_fileName).length>0);\r\n    require(bytes(_fileDescription).length>0);\r\n    require(_fileSize>0);\r\n    require(msg.sender==news[_newsId].uploader);\r\n    \r\n    news[_newsId].filesCount++;\r\n    news[_newsId].files.push(File(news[_newsId].filesCount,_newsId,_fileHash,_fileSize, _fileType,_fileName,_fileDescription,block.timestamp,msg.sender));\r\n\r\n    emit FileUploaded(news[_newsId].filesCount,_newsId,_fileHash,_fileSize,_fileType,_fileName,_fileDescription,block.timestamp,msg.sender);\r\n  }\r\n\r\n\r\n  //Upload News Article\r\n  function uploadNews(string memory _NewsTopic, string memory _NewsDescription) public returns (uint)\r\n  {\r\n\r\n    require(bytes(_NewsTopic).length>0);\r\n    require(bytes(_NewsDescription).length>0);\r\n    require(msg.sender!=address(0));\r\n    newsCount++;\r\n    \r\n    News storage temp = news[newsCount];\r\n    temp.newsId = newsCount;\r\n    temp.NewsTopic = _NewsTopic;\r\n    temp.NewsDescription = _NewsDescription;\r\n    temp.uploadTime = block.timestamp;\r\n    temp.uploader = msg.sender;\r\n    temp.filesCount = 0;\r\n\r\n    if(users[msg.sender].userId==address(0))\r\n    {\r\n      PlatformUser storage temp_user = users[msg.sender];\r\n      temp_user.userId=msg.sender;\r\n      emit UserCreated(msg.sender);\r\n    }\r\n    \r\n    users[msg.sender].newsIds.push(temp.newsId);\r\n    \r\n    emit NewsUploaded(newsCount, _NewsTopic, _NewsDescription, block.timestamp,msg.sender);\r\n    return newsCount;\r\n  }\r\n    function getPlatformUserArticles(address userId) public view returns (News[] memory)\r\n    {\r\n      News[] memory list = new News[](users[userId].newsIds.length);\r\n      for(uint i = 0;i<users[userId].newsIds.length;i++)\r\n      {\r\n        list[i] = news[users[userId].newsIds[i]];\r\n      }\r\n      return list;\r\n    }\r\n    function getArticleMediaList(uint newsid) public view returns (File[] memory)\r\n    {\r\n      return news[newsid].files;\r\n    }\r\n}",
  "sourcePath": "D:\\Web Devlopment\\PRAC_2\\decentralized_new_platform\\src\\contracts\\DNN.sol",
  "compiler": {
    "name": "solc",
    "version": "0.8.6+commit.11564f7e.Emscripten.clang"
  },
  "schemaVersion": "3.4.2",
  "updatedAt": "2021-08-04T13:32:50.996Z",
  "devdoc": {
    "kind": "dev",
    "methods": {},
    "version": 1
  },
  "userdoc": {
    "kind": "user",
    "methods": {},
    "version": 1
  }
}